{
  "contractName": "BottlingFarmRole",
  "abi": [
    {
      "inputs": [],
      "payable": false,
      "stateMutability": "nonpayable",
      "type": "constructor"
    },
    {
      "anonymous": false,
      "inputs": [
        {
          "indexed": true,
          "name": "account",
          "type": "address"
        }
      ],
      "name": "BottlingFarmAdded",
      "type": "event"
    },
    {
      "anonymous": false,
      "inputs": [
        {
          "indexed": true,
          "name": "account",
          "type": "address"
        }
      ],
      "name": "BottlingFarmRemoved",
      "type": "event"
    },
    {
      "constant": true,
      "inputs": [
        {
          "name": "account",
          "type": "address"
        }
      ],
      "name": "isBottlingFarm",
      "outputs": [
        {
          "name": "",
          "type": "bool"
        }
      ],
      "payable": false,
      "stateMutability": "view",
      "type": "function"
    },
    {
      "constant": false,
      "inputs": [
        {
          "name": "account",
          "type": "address"
        }
      ],
      "name": "addBottlingFarm",
      "outputs": [],
      "payable": false,
      "stateMutability": "nonpayable",
      "type": "function"
    },
    {
      "constant": false,
      "inputs": [],
      "name": "renounceBottlingFarm",
      "outputs": [],
      "payable": false,
      "stateMutability": "nonpayable",
      "type": "function"
    }
  ],
  "bytecode": "0x608060405234801561001057600080fd5b506100293361002e640100000000026401000000009004565b610251565b61004f81600061009564010000000002610373179091906401000000009004565b8073ffffffffffffffffffffffffffffffffffffffff167fdc87fe0b8e7906fc54bdf5382bf98ac957c408341d3821d7b65d0526e4ab248160405160405180910390a250565b600073ffffffffffffffffffffffffffffffffffffffff168173ffffffffffffffffffffffffffffffffffffffff16141515156100d157600080fd5b6100ea8282610154640100000000026401000000009004565b1515156100f657600080fd5b60018260000160008373ffffffffffffffffffffffffffffffffffffffff1673ffffffffffffffffffffffffffffffffffffffff16815260200190815260200160002060006101000a81548160ff0219169083151502179055505050565b60008073ffffffffffffffffffffffffffffffffffffffff168273ffffffffffffffffffffffffffffffffffffffff16141515156101fa576040517f08c379a00000000000000000000000000000000000000000000000000000000081526004018080602001828103825260178152602001807f4163636f756e74206973206e6f7420766572696669656400000000000000000081525060200191505060405180910390fd5b8260000160008373ffffffffffffffffffffffffffffffffffffffff1673ffffffffffffffffffffffffffffffffffffffff16815260200190815260200160002060009054906101000a900460ff16905092915050565b6104fe806102606000396000f300608060405260043610610057576000357c0100000000000000000000000000000000000000000000000000000000900463ffffffff168063841c099b1461005c57806386e782ba1461009f578063b08960a7146100b6575b600080fd5b34801561006857600080fd5b5061009d600480360381019080803573ffffffffffffffffffffffffffffffffffffffff169060200190929190505050610111565b005b3480156100ab57600080fd5b506100b461019a565b005b3480156100c257600080fd5b506100f7600480360381019080803573ffffffffffffffffffffffffffffffffffffffff1690602001909291905050506101a5565b604051808215151515815260200191505060405180910390f35b61011a336101a5565b151561018e576040517f08c379a000000000000000000000000000000000000000000000000000000000815260040180806020018281038252601e8152602001807f4163636f756e74206973206e6f74206120626f74746c696e67206661726d000081525060200191505060405180910390fd5b610197816101c2565b50565b6101a33361021c565b565b60006101bb82600061027690919063ffffffff16565b9050919050565b6101d681600061037390919063ffffffff16565b8073ffffffffffffffffffffffffffffffffffffffff167fdc87fe0b8e7906fc54bdf5382bf98ac957c408341d3821d7b65d0526e4ab248160405160405180910390a250565b61023081600061042390919063ffffffff16565b8073ffffffffffffffffffffffffffffffffffffffff167f19382f3588bf7460dfaa88bb5344fe16f108bc636d8921ea4e624d6085a041a160405160405180910390a250565b60008073ffffffffffffffffffffffffffffffffffffffff168273ffffffffffffffffffffffffffffffffffffffff161415151561031c576040517f08c379a00000000000000000000000000000000000000000000000000000000081526004018080602001828103825260178152602001807f4163636f756e74206973206e6f7420766572696669656400000000000000000081525060200191505060405180910390fd5b8260000160008373ffffffffffffffffffffffffffffffffffffffff1673ffffffffffffffffffffffffffffffffffffffff16815260200190815260200160002060009054906101000a900460ff16905092915050565b600073ffffffffffffffffffffffffffffffffffffffff168173ffffffffffffffffffffffffffffffffffffffff16141515156103af57600080fd5b6103b98282610276565b1515156103c557600080fd5b60018260000160008373ffffffffffffffffffffffffffffffffffffffff1673ffffffffffffffffffffffffffffffffffffffff16815260200190815260200160002060006101000a81548160ff0219169083151502179055505050565b600073ffffffffffffffffffffffffffffffffffffffff168173ffffffffffffffffffffffffffffffffffffffff161415151561045f57600080fd5b6104698282610276565b151561047457600080fd5b60008260000160008373ffffffffffffffffffffffffffffffffffffffff1673ffffffffffffffffffffffffffffffffffffffff16815260200190815260200160002060006101000a81548160ff02191690831515021790555050505600a165627a7a72305820f688e615084c35c0d0383cd036b784aca1ba554644b57521e21bba8389487c340029",
  "source": "pragma solidity ^0.4.24;\n\n// Import the library 'Roles'\nimport \"./Roles.sol\";\n\n// Define a contract 'BottlingFarmRole' to manage this role - add, remove, check\ncontract BottlingFarmRole {\n  using Roles for Roles.Role;\n  // Define 2 events, one for Adding, and other for Removing\n  event BottlingFarmAdded(address indexed account);\n  event BottlingFarmRemoved(address indexed account);\n  // Define a struct 'retailers' by inheriting from 'Roles' library, struct Role\n  Roles.Role private bottlingfarms;\n\n  // In the constructor make the address that deploys this contract the 1st retailer\n  constructor() public {\n    _addBottlingFarm(msg.sender);\n  }\n\n  // Define a modifier that checks to see if msg.sender has the appropriate role\n  modifier onlyBottlingFarm() {\n    require(isBottlingFarm(msg.sender), \"Account is not a bottling farm\");\n    _;\n  }\n\n  // Define a function 'isBottlingFarm' to check this role\n  function isBottlingFarm(address account) public view returns (bool) {\n    return bottlingfarms.has(account);\n  }\n\n  // Define a function 'addBottlingFarm' that adds this role\n  function addBottlingFarm(address account) public onlyBottlingFarm {\n    _addBottlingFarm(account);\n  }\n\n  // Define a function 'renounceBottlingFarm' to renounce this role\n  function renounceBottlingFarm() public {\n    _removeBottlingFarm(msg.sender);\n  }\n\n  // Define an internal function '_addBottlingFarm' to add this role, called by 'addBottlingFarm'\n  function _addBottlingFarm(address account) internal {\n    bottlingfarms.add(account);\n    emit BottlingFarmAdded(account);\n  }\n\n  // Define an internal function '_removeBottlingFarm' to remove this role, called by 'removeBottlingFarm'\n  function _removeBottlingFarm(address account) internal {\n    bottlingfarms.remove(account);\n    emit BottlingFarmRemoved(account);\n  }\n}",
  "sourcePath": "/Users/lagostini/MilkyCHAIN/contracts/milkaccesscontrol/BottlingFarmRole.sol",
  "compiler": {
    "name": "solc",
    "version": "0.4.25+commit.59dbf8f1.Emscripten.clang"
  },
  "schemaVersion": "2.0.2",
  "updatedAt": "2019-05-01T18:45:35.441Z"
}