{
  "contractName": "Milk",
  "abi": [
    {
      "inputs": [],
      "payable": true,
      "stateMutability": "payable",
      "type": "constructor"
    },
    {
      "anonymous": false,
      "inputs": [
        {
          "indexed": false,
          "name": "upc",
          "type": "uint256"
        },
        {
          "indexed": false,
          "name": "cow",
          "type": "address"
        }
      ],
      "name": "CowMilked",
      "type": "event"
    },
    {
      "anonymous": false,
      "inputs": [
        {
          "indexed": false,
          "name": "upc",
          "type": "uint256"
        }
      ],
      "name": "StoredInFarm",
      "type": "event"
    },
    {
      "anonymous": false,
      "inputs": [
        {
          "indexed": false,
          "name": "upc",
          "type": "uint256"
        }
      ],
      "name": "OnFarmInspected",
      "type": "event"
    },
    {
      "anonymous": false,
      "inputs": [
        {
          "indexed": false,
          "name": "upc",
          "type": "uint256"
        }
      ],
      "name": "PickedFromFarm",
      "type": "event"
    },
    {
      "anonymous": false,
      "inputs": [
        {
          "indexed": false,
          "name": "upc",
          "type": "uint256"
        }
      ],
      "name": "ShippedToBottlingFarm",
      "type": "event"
    },
    {
      "anonymous": false,
      "inputs": [
        {
          "indexed": false,
          "name": "upc",
          "type": "uint256"
        }
      ],
      "name": "OnBottlingFarmInspected",
      "type": "event"
    },
    {
      "anonymous": false,
      "inputs": [
        {
          "indexed": false,
          "name": "upc",
          "type": "uint256"
        }
      ],
      "name": "Bottled",
      "type": "event"
    },
    {
      "anonymous": false,
      "inputs": [
        {
          "indexed": false,
          "name": "upc",
          "type": "uint256"
        }
      ],
      "name": "Packed",
      "type": "event"
    },
    {
      "anonymous": false,
      "inputs": [
        {
          "indexed": false,
          "name": "upc",
          "type": "uint256"
        }
      ],
      "name": "Shipped",
      "type": "event"
    },
    {
      "anonymous": false,
      "inputs": [
        {
          "indexed": false,
          "name": "upc",
          "type": "uint256"
        }
      ],
      "name": "ForSale",
      "type": "event"
    },
    {
      "anonymous": false,
      "inputs": [
        {
          "indexed": false,
          "name": "upc",
          "type": "uint256"
        }
      ],
      "name": "Purchased",
      "type": "event"
    },
    {
      "anonymous": false,
      "inputs": [
        {
          "indexed": false,
          "name": "upc",
          "type": "uint256"
        }
      ],
      "name": "Consumed",
      "type": "event"
    },
    {
      "constant": true,
      "inputs": [
        {
          "name": "_upc",
          "type": "uint256"
        }
      ],
      "name": "fetchItemBufferOne",
      "outputs": [
        {
          "name": "itemSKU",
          "type": "uint256"
        },
        {
          "name": "itemUPC",
          "type": "uint256"
        },
        {
          "name": "ownerID",
          "type": "address"
        },
        {
          "name": "originFarmerID",
          "type": "address"
        },
        {
          "name": "originFarmName",
          "type": "string"
        },
        {
          "name": "originFarmInformation",
          "type": "string"
        },
        {
          "name": "originFarmLatitude",
          "type": "string"
        },
        {
          "name": "originFarmLongitude",
          "type": "string"
        }
      ],
      "payable": false,
      "stateMutability": "view",
      "type": "function"
    },
    {
      "constant": true,
      "inputs": [
        {
          "name": "_upc",
          "type": "uint256"
        }
      ],
      "name": "fetchItemBufferTwo",
      "outputs": [
        {
          "name": "itemSKU",
          "type": "uint256"
        },
        {
          "name": "itemUPC",
          "type": "uint256"
        },
        {
          "name": "productID",
          "type": "uint256"
        },
        {
          "name": "productNotes",
          "type": "string"
        },
        {
          "name": "productPrice",
          "type": "uint256"
        },
        {
          "name": "itemState",
          "type": "uint256"
        },
        {
          "name": "transporterID",
          "type": "address"
        },
        {
          "name": "bottlingFarmID",
          "type": "address"
        },
        {
          "name": "distributorID",
          "type": "address"
        },
        {
          "name": "consumerID",
          "type": "address"
        }
      ],
      "payable": false,
      "stateMutability": "view",
      "type": "function"
    }
  ],
  "bytecode": "0x6080604052600180819055506001600081905550610a6c806100226000396000f30060806040526004361061004c576000357c0100000000000000000000000000000000000000000000000000000000900463ffffffff16806366225ff91461005157806377c45913146101e6575b600080fd5b34801561005d57600080fd5b5061007c60048036038101908080359060200190929190505050610444565b604051808b81526020018a8152602001898152602001806020018881526020018781526020018673ffffffffffffffffffffffffffffffffffffffff1673ffffffffffffffffffffffffffffffffffffffff1681526020018573ffffffffffffffffffffffffffffffffffffffff1673ffffffffffffffffffffffffffffffffffffffff1681526020018473ffffffffffffffffffffffffffffffffffffffff1673ffffffffffffffffffffffffffffffffffffffff1681526020018373ffffffffffffffffffffffffffffffffffffffff1673ffffffffffffffffffffffffffffffffffffffff168152602001828103825289818151815260200191508051906020019080838360005b838110156101a2578082015181840152602081019050610187565b50505050905090810190601f1680156101cf5780820380516001836020036101000a031916815260200191505b509b50505050505050505050505060405180910390f35b3480156101f257600080fd5b50610211600480360381019080803590602001909291905050506106a9565b604051808981526020018881526020018773ffffffffffffffffffffffffffffffffffffffff1673ffffffffffffffffffffffffffffffffffffffff1681526020018673ffffffffffffffffffffffffffffffffffffffff1673ffffffffffffffffffffffffffffffffffffffff16815260200180602001806020018060200180602001858103855289818151815260200191508051906020019080838360005b838110156102cd5780820151818401526020810190506102b2565b50505050905090810190601f1680156102fa5780820380516001836020036101000a031916815260200191505b50858103845288818151815260200191508051906020019080838360005b83811015610333578082015181840152602081019050610318565b50505050905090810190601f1680156103605780820380516001836020036101000a031916815260200191505b50858103835287818151815260200191508051906020019080838360005b8381101561039957808201518184015260208101905061037e565b50505050905090810190601f1680156103c65780820380516001836020036101000a031916815260200191505b50858103825286818151815260200191508051906020019080838360005b838110156103ff5780820151818401526020810190506103e4565b50505050905090810190601f16801561042c5780820380516001836020036101000a031916815260200191505b509c5050505050505050505050505060405180910390f35b60008060006060600080600080600080600260008c8152602001908152602001600020600001549950600260008c8152602001908152602001600020600101549850600260008c8152602001908152602001600020600901549750600260008c8152602001908152602001600020600a018054600181600116156101000203166002900480601f0160208091040260200160405190810160405280929190818152602001828054600181600116156101000203166002900480156105495780601f1061051e57610100808354040283529160200191610549565b820191906000526020600020905b81548152906001019060200180831161052c57829003601f168201915b50505050509650600260008c8152602001908152602001600020600b01549550600260008c815260200190815260200160002060020160009054906101000a900460ff16600b81111561059857fe5b9450600260008c8152602001908152602001600020600d0160009054906101000a900473ffffffffffffffffffffffffffffffffffffffff169350600260008c8152602001908152602001600020600c0160009054906101000a900473ffffffffffffffffffffffffffffffffffffffff169250600260008c8152602001908152602001600020600e0160009054906101000a900473ffffffffffffffffffffffffffffffffffffffff169150600260008c8152602001908152602001600020600f0160009054906101000a900473ffffffffffffffffffffffffffffffffffffffff1690508989898989898989898999509950995099509950995099509950995099509193959799509193959799565b600080600080606080606080600260008a8152602001908152602001600020600001549750600260008a8152602001908152602001600020600101549650600260008a815260200190815260200160002060030160009054906101000a900473ffffffffffffffffffffffffffffffffffffffff169550600260008a815260200190815260200160002060040160009054906101000a900473ffffffffffffffffffffffffffffffffffffffff169450600260008a81526020019081526020016000206005018054600181600116156101000203166002900480601f0160208091040260200160405190810160405280929190818152602001828054600181600116156101000203166002900480156108035780601f106107d857610100808354040283529160200191610803565b820191906000526020600020905b8154815290600101906020018083116107e657829003601f168201915b50505050509350600260008a81526020019081526020016000206006018054600181600116156101000203166002900480601f0160208091040260200160405190810160405280929190818152602001828054600181600116156101000203166002900480156108b45780601f10610889576101008083540402835291602001916108b4565b820191906000526020600020905b81548152906001019060200180831161089757829003601f168201915b50505050509250600260008a81526020019081526020016000206007018054600181600116156101000203166002900480601f0160208091040260200160405190810160405280929190818152602001828054600181600116156101000203166002900480156109655780601f1061093a57610100808354040283529160200191610965565b820191906000526020600020905b81548152906001019060200180831161094857829003601f168201915b50505050509150600260008a81526020019081526020016000206008018054600181600116156101000203166002900480601f016020809104026020016040519081016040528092919081815260200182805460018160011615610100020316600290048015610a165780601f106109eb57610100808354040283529160200191610a16565b820191906000526020600020905b8154815290600101906020018083116109f957829003601f168201915b505050505090508787878787878787975097509750975097509750975097509193959750919395975600a165627a7a723058201df4995b1f03b831cbd4afd328eac344760ea6a2c14f7bacef5dbc092352a1680029",
  "source": "pragma solidity ^0.4.24;\n\n\ncontract Milk {\n\n    /// Variable for tracking Product Kepping Unit (PKU)\n    uint upc;\n\n    /// Variable for tracking Stock Louding Uint (SLU)\n    uint sku;\n\n    // Define a public mapping 'items' that maps the UPC to an Item.\n    mapping (uint => MilkItem) items;\n\n    // Define a public mapping 'itemsHistory' that maps the UPC to an array of TxHash, \n    // that track its journey through the supply chain -- to be sent from DApp.\n    mapping (uint => string[]) itemsHistory;\n\n    // Enumaration for defining variety of Drug State\n    enum MilkState {\n        Milked,                 // 0\n        StoredInColdTank,       // 1\n        InspectedOnFarm,        // 2\n        TankShipped,            // 3\n        StoredInHugeTank,       // 4\n        InspectedOnBottlingFarm,// 5\n        Bottled,                // 6\n        Packed,                 // 7\n        Delivered,              // 8\n        OnSale,                 // 9\n        Purchased,              // 10\n        Consumed                // 11\n    }\n\n\n    /// Structure for keeping Drug Design fields structured\n    struct MilkItem {\n        uint sku;  // Stock Keeping Unit (SKU)\n        uint upc; // Universal Product Code (UPC), generated by the Farmer, goes on the package, can be verified by the Consumer\n        MilkState state;\n        address cow; // Cow that made such tasteful milk\n        address ownerID;  // Metamask-Ethereum address of the current owner as the product moves through 8 stages\n        address originFarmerID; // Metamask-Ethereum address of the Farmer\n        string  originFarmName; // Farmer Name\n        string  originFarmInformation;  // Farmer Information\n        string  originFarmLatitude; // Farm Latitude\n        string  originFarmLongitude;  // Farm Longitude\n        uint    productID;  // Product ID potentially a combination of upc + sku\n        string  productNotes; // Product Notes\n        uint    productPrice; // Product Price\n        address bottlingFarmID; // Metamask-Ethereum address of the Retailer\n        address transporterID; // Metamask-Ethereum address of the Retailer\n        address distributorID;  // Metamask-Ethereum address of the Distributor\n        address consumerID; // Metamask-Ethereum address of the Consumer\n    }\n\n    /// Event to emit them for users in functions, accept `slu` as input as stock expected\n    event CowMilked(uint upc, address cow);\n    event StoredInFarm(uint upc);\n    event OnFarmInspected(uint upc);\n    event PickedFromFarm(uint upc);\n    event ShippedToBottlingFarm(uint upc);\n    event OnBottlingFarmInspected(uint upc);\n    event Bottled(uint upc);\n    event Packed(uint upc);\n    event Shipped(uint upc);\n    event ForSale(uint upc);\n    event Purchased(uint upc);\n    event Consumed(uint upc);\n\n    // In the constructor set 'owner' to the address that instantiated the contract\n    // and set 'sku' to 1\n    // and set 'upc' to 1\n    constructor() public payable {\n        sku = 1;\n        upc = 1;\n    }\n\n    // Define a modifier that checks if an item.state of a upc is CowMilked\n    modifier isMilked(uint _upc) {\n        require(items[_upc].state == MilkState.Milked, \"Milk not ready\");\n        _;\n    }\n    // Define a modifier that checks if an item.state of a upc is CowMiStoredInColdTanklked\n    modifier isStoredInColdTank(uint _upc) {\n        require(items[_upc].state == MilkState.StoredInColdTank, \"Milk not in farm cold tank\");\n        _;\n    }\n        // Define a modifier that checks if an item.state of a upc is InspectedOnFarm\n    modifier isInspectedOnFarm(uint _upc) {\n        require(items[_upc].state == MilkState.InspectedOnFarm, \"Milk pickable, it has not been inspected by farmer\");\n        _;\n    }\n        // Define a modifier that checks if an item.state of a upc is TankShipped\n    modifier isTankShipped(uint _upc) {\n        require(items[_upc].state == MilkState.TankShipped, \"Milk not loaded in truck\");\n        _;\n    }\n        // Define a modifier that checks if an item.state of a upc is StoredInHugeTank\n    modifier isStoredInHugeTank(uint _upc) {\n        require(items[_upc].state == MilkState.StoredInHugeTank, \"Milk not in bottling farm tank\");\n        _;\n    }\n        // Define a modifier that checks if an item.state of a upc is CowMilked\n    modifier isInspectedOnBottlingFarm(uint _upc) {\n        require(items[_upc].state == MilkState.InspectedOnBottlingFarm, \"Milk not to be bottled, missing inspection\");\n        _;\n    }\n        // Define a modifier that checks if an item.state of a upc is CowMilked\n    modifier isBottled(uint _upc) {\n        require(items[_upc].state == MilkState.Bottled, \"Milk not bottled\");\n        _;\n    }\n        // Define a modifier that checks if an item.state of a upc is CowMilked\n    modifier isPacked(uint _upc) {\n        require(items[_upc].state == MilkState.Packed, \"Milk not packed\");\n        _;\n    }\n        // Define a modifier that checks if an item.state of a upc is CowMilked\n    modifier isDelivered(uint _upc) {\n        require(items[_upc].state == MilkState.Delivered, \"Milk not delivered\");\n        _;\n    }\n        // Define a modifier that checks if an item.state of a upc is CowMilked\n    modifier isOnSale(uint _upc) {\n        require(items[_upc].state == MilkState.OnSale, \"Milk not on sale\");\n        _;\n    }\n        // Define a modifier that checks if an item.state of a upc is CowMilked\n    modifier isPurchased(uint _upc) {\n        require(items[_upc].state == MilkState.Purchased, \"Milk not purchased\");\n        _;\n    }\n\n\n\n\n  // Define a function 'fetchItemBufferOne' that fetches the data\n  function fetchItemBufferOne(uint _upc) public view returns \n  (\n  uint    itemSKU,\n  uint    itemUPC,\n  address ownerID,\n  address originFarmerID,\n  string  originFarmName,\n  string  originFarmInformation,\n  string  originFarmLatitude,\n  string  originFarmLongitude\n  ) \n  {\n  // Assign values to the 8 parameters\n  itemSKU = items[_upc].sku;\n  itemUPC= items[_upc].upc;\n  ownerID= items[_upc].ownerID;\n  originFarmerID= items[_upc].originFarmerID;\n  originFarmName= items[_upc].originFarmName;\n  originFarmInformation= items[_upc].originFarmInformation;\n  originFarmLatitude= items[_upc].originFarmLatitude;\n  originFarmLongitude= items[_upc].originFarmLongitude;\n\n    \n  return \n  (\n  itemSKU,\n  itemUPC,\n  ownerID,\n  originFarmerID,\n  originFarmName,\n  originFarmInformation,\n  originFarmLatitude,\n  originFarmLongitude\n  );\n  }\n\n  // Define a function 'fetchItemBufferTwo' that fetches the data\n  function fetchItemBufferTwo(uint _upc) public view returns \n  (\n  uint    itemSKU,\n  uint    itemUPC,\n  uint    productID,\n  string  productNotes,\n  uint    productPrice,\n  uint    itemState,\n  address transporterID,\n  address bottlingFarmID,\n  address distributorID,\n  address consumerID\n  ) \n  {\n    // Assign values to the 9 parameters\n    itemSKU = items[_upc].sku;\n  itemUPC= items[_upc].upc;\n  productID= items[_upc].productID;\n  productNotes= items[_upc].productNotes;\n  productPrice= items[_upc].productPrice;\n  itemState= uint(items[_upc].state);\n  transporterID= items[_upc].transporterID;\nbottlingFarmID= items[_upc].bottlingFarmID;\n  distributorID= items[_upc].distributorID;\n  consumerID= items[_upc].consumerID;\n    \n  return \n  (\n  itemSKU,\n  itemUPC,\n  productID,\n  productNotes,\n  productPrice,\n  itemState,\n  transporterID,\n  bottlingFarmID,\n  distributorID,\n  consumerID\n  );\n  }\n\n}",
  "sourcePath": "/Users/lagostini/MilkyCHAIN/contracts/milkbase/Milk.sol",
  "compiler": {
    "name": "solc",
    "version": "0.4.25+commit.59dbf8f1.Emscripten.clang"
  },
  "schemaVersion": "2.0.2",
  "updatedAt": "2019-05-01T18:24:28.386Z"
}