{
  "contractName": "SupplyChain",
  "abi": [
    {
      "constant": false,
      "inputs": [
        {
          "name": "account",
          "type": "address"
        }
      ],
      "name": "addConsumer",
      "outputs": [],
      "payable": false,
      "stateMutability": "nonpayable",
      "type": "function"
    },
    {
      "constant": true,
      "inputs": [
        {
          "name": "account",
          "type": "address"
        }
      ],
      "name": "isTransporter",
      "outputs": [
        {
          "name": "",
          "type": "bool"
        }
      ],
      "payable": false,
      "stateMutability": "view",
      "type": "function"
    },
    {
      "constant": false,
      "inputs": [],
      "name": "renounceTransporter",
      "outputs": [],
      "payable": false,
      "stateMutability": "nonpayable",
      "type": "function"
    },
    {
      "constant": false,
      "inputs": [],
      "name": "renounceConsumer",
      "outputs": [],
      "payable": false,
      "stateMutability": "nonpayable",
      "type": "function"
    },
    {
      "constant": false,
      "inputs": [],
      "name": "renounceDistributor",
      "outputs": [],
      "payable": false,
      "stateMutability": "nonpayable",
      "type": "function"
    },
    {
      "constant": true,
      "inputs": [
        {
          "name": "_upc",
          "type": "uint256"
        }
      ],
      "name": "fetchItemBufferTwo",
      "outputs": [
        {
          "name": "itemSKU",
          "type": "uint256"
        },
        {
          "name": "itemUPC",
          "type": "uint256"
        },
        {
          "name": "productID",
          "type": "uint256"
        },
        {
          "name": "productNotes",
          "type": "string"
        },
        {
          "name": "productPrice",
          "type": "uint256"
        },
        {
          "name": "itemState",
          "type": "uint256"
        },
        {
          "name": "transporterID",
          "type": "address"
        },
        {
          "name": "bottlingFarmID",
          "type": "address"
        },
        {
          "name": "distributorID",
          "type": "address"
        },
        {
          "name": "consumerID",
          "type": "address"
        }
      ],
      "payable": false,
      "stateMutability": "view",
      "type": "function"
    },
    {
      "constant": false,
      "inputs": [],
      "name": "renounceOwnership",
      "outputs": [],
      "payable": false,
      "stateMutability": "nonpayable",
      "type": "function"
    },
    {
      "constant": false,
      "inputs": [
        {
          "name": "account",
          "type": "address"
        }
      ],
      "name": "addDistributor",
      "outputs": [],
      "payable": false,
      "stateMutability": "nonpayable",
      "type": "function"
    },
    {
      "constant": true,
      "inputs": [
        {
          "name": "_upc",
          "type": "uint256"
        }
      ],
      "name": "fetchItemBufferOne",
      "outputs": [
        {
          "name": "itemSKU",
          "type": "uint256"
        },
        {
          "name": "itemUPC",
          "type": "uint256"
        },
        {
          "name": "ownerID",
          "type": "address"
        },
        {
          "name": "originFarmerID",
          "type": "address"
        },
        {
          "name": "originFarmName",
          "type": "string"
        },
        {
          "name": "originFarmInformation",
          "type": "string"
        },
        {
          "name": "originFarmLatitude",
          "type": "string"
        },
        {
          "name": "originFarmLongitude",
          "type": "string"
        }
      ],
      "payable": false,
      "stateMutability": "view",
      "type": "function"
    },
    {
      "constant": false,
      "inputs": [
        {
          "name": "account",
          "type": "address"
        }
      ],
      "name": "addFarmer",
      "outputs": [],
      "payable": false,
      "stateMutability": "nonpayable",
      "type": "function"
    },
    {
      "constant": false,
      "inputs": [],
      "name": "renounceFarmer",
      "outputs": [],
      "payable": false,
      "stateMutability": "nonpayable",
      "type": "function"
    },
    {
      "constant": true,
      "inputs": [
        {
          "name": "account",
          "type": "address"
        }
      ],
      "name": "isConsumer",
      "outputs": [
        {
          "name": "",
          "type": "bool"
        }
      ],
      "payable": false,
      "stateMutability": "view",
      "type": "function"
    },
    {
      "constant": false,
      "inputs": [
        {
          "name": "account",
          "type": "address"
        }
      ],
      "name": "addBottlingFarm",
      "outputs": [],
      "payable": false,
      "stateMutability": "nonpayable",
      "type": "function"
    },
    {
      "constant": false,
      "inputs": [],
      "name": "renounceBottlingFarm",
      "outputs": [],
      "payable": false,
      "stateMutability": "nonpayable",
      "type": "function"
    },
    {
      "constant": true,
      "inputs": [],
      "name": "owner",
      "outputs": [
        {
          "name": "",
          "type": "address"
        }
      ],
      "payable": false,
      "stateMutability": "view",
      "type": "function"
    },
    {
      "constant": true,
      "inputs": [
        {
          "name": "account",
          "type": "address"
        }
      ],
      "name": "isDistributor",
      "outputs": [
        {
          "name": "",
          "type": "bool"
        }
      ],
      "payable": false,
      "stateMutability": "view",
      "type": "function"
    },
    {
      "constant": true,
      "inputs": [],
      "name": "isOwner",
      "outputs": [
        {
          "name": "",
          "type": "bool"
        }
      ],
      "payable": false,
      "stateMutability": "view",
      "type": "function"
    },
    {
      "constant": true,
      "inputs": [
        {
          "name": "account",
          "type": "address"
        }
      ],
      "name": "isBottlingFarm",
      "outputs": [
        {
          "name": "",
          "type": "bool"
        }
      ],
      "payable": false,
      "stateMutability": "view",
      "type": "function"
    },
    {
      "constant": false,
      "inputs": [
        {
          "name": "account",
          "type": "address"
        }
      ],
      "name": "addTransporter",
      "outputs": [],
      "payable": false,
      "stateMutability": "nonpayable",
      "type": "function"
    },
    {
      "constant": true,
      "inputs": [
        {
          "name": "account",
          "type": "address"
        }
      ],
      "name": "isFarmer",
      "outputs": [
        {
          "name": "",
          "type": "bool"
        }
      ],
      "payable": false,
      "stateMutability": "view",
      "type": "function"
    },
    {
      "constant": false,
      "inputs": [
        {
          "name": "newOwner",
          "type": "address"
        }
      ],
      "name": "transferOwnership",
      "outputs": [],
      "payable": false,
      "stateMutability": "nonpayable",
      "type": "function"
    },
    {
      "anonymous": false,
      "inputs": [
        {
          "indexed": true,
          "name": "account",
          "type": "address"
        }
      ],
      "name": "ConsumerAdded",
      "type": "event"
    },
    {
      "anonymous": false,
      "inputs": [
        {
          "indexed": true,
          "name": "account",
          "type": "address"
        }
      ],
      "name": "ConsumerRemoved",
      "type": "event"
    },
    {
      "anonymous": false,
      "inputs": [
        {
          "indexed": true,
          "name": "account",
          "type": "address"
        }
      ],
      "name": "DistributorAdded",
      "type": "event"
    },
    {
      "anonymous": false,
      "inputs": [
        {
          "indexed": true,
          "name": "account",
          "type": "address"
        }
      ],
      "name": "DistributorRemoved",
      "type": "event"
    },
    {
      "anonymous": false,
      "inputs": [
        {
          "indexed": true,
          "name": "account",
          "type": "address"
        }
      ],
      "name": "BottlingFarmAdded",
      "type": "event"
    },
    {
      "anonymous": false,
      "inputs": [
        {
          "indexed": true,
          "name": "account",
          "type": "address"
        }
      ],
      "name": "BottlingFarmRemoved",
      "type": "event"
    },
    {
      "anonymous": false,
      "inputs": [
        {
          "indexed": true,
          "name": "account",
          "type": "address"
        }
      ],
      "name": "TransporterAdded",
      "type": "event"
    },
    {
      "anonymous": false,
      "inputs": [
        {
          "indexed": true,
          "name": "account",
          "type": "address"
        }
      ],
      "name": "TransporterRemoved",
      "type": "event"
    },
    {
      "anonymous": false,
      "inputs": [
        {
          "indexed": true,
          "name": "account",
          "type": "address"
        }
      ],
      "name": "FarmerAdded",
      "type": "event"
    },
    {
      "anonymous": false,
      "inputs": [
        {
          "indexed": true,
          "name": "account",
          "type": "address"
        }
      ],
      "name": "FarmerRemoved",
      "type": "event"
    },
    {
      "anonymous": false,
      "inputs": [
        {
          "indexed": false,
          "name": "upc",
          "type": "uint256"
        },
        {
          "indexed": false,
          "name": "cow",
          "type": "address"
        }
      ],
      "name": "CowMilked",
      "type": "event"
    },
    {
      "anonymous": false,
      "inputs": [
        {
          "indexed": false,
          "name": "upc",
          "type": "uint256"
        }
      ],
      "name": "StoredInFarm",
      "type": "event"
    },
    {
      "anonymous": false,
      "inputs": [
        {
          "indexed": false,
          "name": "upc",
          "type": "uint256"
        }
      ],
      "name": "OnFarmInspected",
      "type": "event"
    },
    {
      "anonymous": false,
      "inputs": [
        {
          "indexed": false,
          "name": "upc",
          "type": "uint256"
        }
      ],
      "name": "PickedFromFarm",
      "type": "event"
    },
    {
      "anonymous": false,
      "inputs": [
        {
          "indexed": false,
          "name": "upc",
          "type": "uint256"
        }
      ],
      "name": "ShippedToBottlingFarm",
      "type": "event"
    },
    {
      "anonymous": false,
      "inputs": [
        {
          "indexed": false,
          "name": "upc",
          "type": "uint256"
        }
      ],
      "name": "OnBottlingFarmInspected",
      "type": "event"
    },
    {
      "anonymous": false,
      "inputs": [
        {
          "indexed": false,
          "name": "upc",
          "type": "uint256"
        }
      ],
      "name": "Bottled",
      "type": "event"
    },
    {
      "anonymous": false,
      "inputs": [
        {
          "indexed": false,
          "name": "upc",
          "type": "uint256"
        }
      ],
      "name": "Packed",
      "type": "event"
    },
    {
      "anonymous": false,
      "inputs": [
        {
          "indexed": false,
          "name": "upc",
          "type": "uint256"
        }
      ],
      "name": "Shipped",
      "type": "event"
    },
    {
      "anonymous": false,
      "inputs": [
        {
          "indexed": false,
          "name": "upc",
          "type": "uint256"
        }
      ],
      "name": "ForSale",
      "type": "event"
    },
    {
      "anonymous": false,
      "inputs": [
        {
          "indexed": false,
          "name": "upc",
          "type": "uint256"
        }
      ],
      "name": "Purchased",
      "type": "event"
    },
    {
      "anonymous": false,
      "inputs": [
        {
          "indexed": false,
          "name": "upc",
          "type": "uint256"
        }
      ],
      "name": "Consumed",
      "type": "event"
    },
    {
      "anonymous": false,
      "inputs": [
        {
          "indexed": true,
          "name": "oldOwner",
          "type": "address"
        },
        {
          "indexed": true,
          "name": "newOwner",
          "type": "address"
        }
      ],
      "name": "TransferOwnership",
      "type": "event"
    },
    {
      "constant": false,
      "inputs": [],
      "name": "kill",
      "outputs": [],
      "payable": false,
      "stateMutability": "nonpayable",
      "type": "function"
    },
    {
      "constant": false,
      "inputs": [
        {
          "name": "_fromCow",
          "type": "address"
        },
        {
          "name": "_originFarmerID",
          "type": "address"
        },
        {
          "name": "_originFarmName",
          "type": "string"
        },
        {
          "name": "_originFarmInformation",
          "type": "string"
        },
        {
          "name": "_originFarmLatitude",
          "type": "string"
        },
        {
          "name": "_originFarmLongitude",
          "type": "string"
        },
        {
          "name": "_productNotes",
          "type": "string"
        }
      ],
      "name": "milkCow",
      "outputs": [],
      "payable": false,
      "stateMutability": "nonpayable",
      "type": "function"
    },
    {
      "constant": false,
      "inputs": [
        {
          "name": "_upc",
          "type": "uint256"
        }
      ],
      "name": "refrigerate",
      "outputs": [],
      "payable": false,
      "stateMutability": "nonpayable",
      "type": "function"
    },
    {
      "constant": false,
      "inputs": [
        {
          "name": "_upc",
          "type": "uint256"
        }
      ],
      "name": "onFarmInspect",
      "outputs": [],
      "payable": false,
      "stateMutability": "nonpayable",
      "type": "function"
    },
    {
      "constant": false,
      "inputs": [
        {
          "name": "_upc",
          "type": "uint256"
        }
      ],
      "name": "pick",
      "outputs": [],
      "payable": false,
      "stateMutability": "nonpayable",
      "type": "function"
    },
    {
      "constant": false,
      "inputs": [
        {
          "name": "_upc",
          "type": "uint256"
        }
      ],
      "name": "ship",
      "outputs": [],
      "payable": false,
      "stateMutability": "nonpayable",
      "type": "function"
    },
    {
      "constant": false,
      "inputs": [
        {
          "name": "_upc",
          "type": "uint256"
        }
      ],
      "name": "onBottlingFarmInspect",
      "outputs": [],
      "payable": false,
      "stateMutability": "nonpayable",
      "type": "function"
    },
    {
      "constant": false,
      "inputs": [
        {
          "name": "_upc",
          "type": "uint256"
        }
      ],
      "name": "bottle",
      "outputs": [],
      "payable": false,
      "stateMutability": "nonpayable",
      "type": "function"
    },
    {
      "constant": false,
      "inputs": [
        {
          "name": "_upc",
          "type": "uint256"
        }
      ],
      "name": "pack",
      "outputs": [],
      "payable": false,
      "stateMutability": "nonpayable",
      "type": "function"
    },
    {
      "constant": false,
      "inputs": [
        {
          "name": "_upc",
          "type": "uint256"
        }
      ],
      "name": "delivery",
      "outputs": [],
      "payable": false,
      "stateMutability": "nonpayable",
      "type": "function"
    },
    {
      "constant": false,
      "inputs": [
        {
          "name": "_upc",
          "type": "uint256"
        },
        {
          "name": "_price",
          "type": "uint256"
        }
      ],
      "name": "sell",
      "outputs": [],
      "payable": false,
      "stateMutability": "nonpayable",
      "type": "function"
    },
    {
      "constant": false,
      "inputs": [
        {
          "name": "_upc",
          "type": "uint256"
        }
      ],
      "name": "buy",
      "outputs": [],
      "payable": true,
      "stateMutability": "payable",
      "type": "function"
    },
    {
      "constant": false,
      "inputs": [
        {
          "name": "_upc",
          "type": "uint256"
        }
      ],
      "name": "consume",
      "outputs": [],
      "payable": false,
      "stateMutability": "nonpayable",
      "type": "function"
    }
  ],
  "bytecode": "0x6080604052336000806101000a81548173ffffffffffffffffffffffffffffffffffffffff021916908373ffffffffffffffffffffffffffffffffffffffff1602179055506000809054906101000a900473ffffffffffffffffffffffffffffffffffffffff1673ffffffffffffffffffffffffffffffffffffffff16600073ffffffffffffffffffffffffffffffffffffffff167f5c486528ec3e3f0ea91181cff8116f02bfa350e03b8b6f12e00765adbb5af85c60405160405180910390a3600160028190555060018081905550620000e93362000157640100000000026401000000009004565b6200010333620001c1640100000000026401000000009004565b6200011d336200022b640100000000026401000000009004565b620001373362000295640100000000026401000000009004565b6200015133620002ff640100000000026401000000009004565b6200052a565b6200017b816005620003696401000000000262003c12179091906401000000009004565b8073ffffffffffffffffffffffffffffffffffffffff167f2e0ded4123377a3c2bc9a26f1717655a129e2f20752924d42e730ec89c83dbd060405160405180910390a250565b620001e5816006620003696401000000000262003c12179091906401000000009004565b8073ffffffffffffffffffffffffffffffffffffffff167f4d9645f2965973330140385c3b546ad4c04b7ee2ae3abb69562f5929d6b8320b60405160405180910390a250565b6200024f816007620003696401000000000262003c12179091906401000000009004565b8073ffffffffffffffffffffffffffffffffffffffff167fdc87fe0b8e7906fc54bdf5382bf98ac957c408341d3821d7b65d0526e4ab248160405160405180910390a250565b620002b9816008620003696401000000000262003c12179091906401000000009004565b8073ffffffffffffffffffffffffffffffffffffffff167fddbf200aa634dc3fb81cfd68583dd1040d1c751d335e1d86b631bde3e977fea860405160405180910390a250565b62000323816009620003696401000000000262003c12179091906401000000009004565b8073ffffffffffffffffffffffffffffffffffffffff167f28b26e7a3d20aedbc5f8f2ebf7da671c0491723a2b78f47a097b0e46dee0714260405160405180910390a250565b600073ffffffffffffffffffffffffffffffffffffffff168173ffffffffffffffffffffffffffffffffffffffff1614151515620003a657600080fd5b620003c182826200042c640100000000026401000000009004565b151515620003ce57600080fd5b60018260000160008373ffffffffffffffffffffffffffffffffffffffff1673ffffffffffffffffffffffffffffffffffffffff16815260200190815260200160002060006101000a81548160ff0219169083151502179055505050565b60008073ffffffffffffffffffffffffffffffffffffffff168273ffffffffffffffffffffffffffffffffffffffff1614151515620004d3576040517f08c379a00000000000000000000000000000000000000000000000000000000081526004018080602001828103825260178152602001807f4163636f756e74206973206e6f7420766572696669656400000000000000000081525060200191505060405180910390fd5b8260000160008373ffffffffffffffffffffffffffffffffffffffff1673ffffffffffffffffffffffffffffffffffffffff16815260200190815260200160002060009054906101000a900460ff16905092915050565b613f6c806200053a6000396000f3006080604052600436106101ac576000357c0100000000000000000000000000000000000000000000000000000000900463ffffffff168063112940f9146101b15780631144fd72146101f45780631947ea1814610221578063244f643b1461024e5780632b8109d51461027b5780632ea17b27146102d657806341c0e1b5146102ed578063483f31ab1461030457806361e6982d14610331578063644241db1461034857806366225ff91461035f5780636ea42555146104f4578063715018a6146105215780637250e224146105385780637701ea4a1461057b57806377c45913146105a857806380c3f96d1461080657806380fc0ce414610849578063834ff73914610860578063841c099b146108bb57806385860158146108fe57806386e782ba1461092b5780638da5cb5b146109425780638f0c86fa146109995780638f32d59b146109f4578063a12a7ff314610a23578063b08960a714610a50578063b702204914610aab578063b942906914610aee578063d79875eb14610b49578063d96a094a14610b80578063dd78e24014610ba0578063ed1747c014610d61578063f2fde38b14610d8e575b600080fd5b3480156101bd57600080fd5b506101f2600480360381019080803573ffffffffffffffffffffffffffffffffffffffff169060200190929190505050610dd1565b005b34801561020057600080fd5b5061021f60048036038101908080359060200190929190505050610e5a565b005b34801561022d57600080fd5b5061024c60048036038101908080359060200190929190505050610ffc565b005b34801561025a57600080fd5b506102796004803603810190808035906020019092919050505061119e565b005b34801561028757600080fd5b506102bc600480360381019080803573ffffffffffffffffffffffffffffffffffffffff169060200190929190505050611340565b604051808215151515815260200191505060405180910390f35b3480156102e257600080fd5b506102eb61135d565b005b3480156102f957600080fd5b50610302611368565b005b34801561031057600080fd5b5061032f60048036038101908080359060200190929190505050611390565b005b34801561033d57600080fd5b50610346611532565b005b34801561035457600080fd5b5061035d61153d565b005b34801561036b57600080fd5b5061038a60048036038101908080359060200190929190505050611548565b604051808b81526020018a8152602001898152602001806020018881526020018781526020018673ffffffffffffffffffffffffffffffffffffffff1673ffffffffffffffffffffffffffffffffffffffff1681526020018573ffffffffffffffffffffffffffffffffffffffff1673ffffffffffffffffffffffffffffffffffffffff1681526020018473ffffffffffffffffffffffffffffffffffffffff1673ffffffffffffffffffffffffffffffffffffffff1681526020018373ffffffffffffffffffffffffffffffffffffffff1673ffffffffffffffffffffffffffffffffffffffff168152602001828103825289818151815260200191508051906020019080838360005b838110156104b0578082015181840152602081019050610495565b50505050905090810190601f1680156104dd5780820380516001836020036101000a031916815260200191505b509b50505050505050505050505060405180910390f35b34801561050057600080fd5b5061051f600480360381019080803590602001909291905050506117ad565b005b34801561052d57600080fd5b5061053661194f565b005b34801561054457600080fd5b50610579600480360381019080803573ffffffffffffffffffffffffffffffffffffffff169060200190929190505050611a21565b005b34801561058757600080fd5b506105a660048036038101908080359060200190929190505050611aaa565b005b3480156105b457600080fd5b506105d360048036038101908080359060200190929190505050611d1b565b604051808981526020018881526020018773ffffffffffffffffffffffffffffffffffffffff1673ffffffffffffffffffffffffffffffffffffffff1681526020018673ffffffffffffffffffffffffffffffffffffffff1673ffffffffffffffffffffffffffffffffffffffff16815260200180602001806020018060200180602001858103855289818151815260200191508051906020019080838360005b8381101561068f578082015181840152602081019050610674565b50505050905090810190601f1680156106bc5780820380516001836020036101000a031916815260200191505b50858103845288818151815260200191508051906020019080838360005b838110156106f55780820151818401526020810190506106da565b50505050905090810190601f1680156107225780820380516001836020036101000a031916815260200191505b50858103835287818151815260200191508051906020019080838360005b8381101561075b578082015181840152602081019050610740565b50505050905090810190601f1680156107885780820380516001836020036101000a031916815260200191505b50858103825286818151815260200191508051906020019080838360005b838110156107c15780820151818401526020810190506107a6565b50505050905090810190601f1680156107ee5780820380516001836020036101000a031916815260200191505b509c5050505050505050505050505060405180910390f35b34801561081257600080fd5b50610847600480360381019080803573ffffffffffffffffffffffffffffffffffffffff1690602001909291905050506120b2565b005b34801561085557600080fd5b5061085e61213b565b005b34801561086c57600080fd5b506108a1600480360381019080803573ffffffffffffffffffffffffffffffffffffffff169060200190929190505050612146565b604051808215151515815260200191505060405180910390f35b3480156108c757600080fd5b506108fc600480360381019080803573ffffffffffffffffffffffffffffffffffffffff169060200190929190505050612163565b005b34801561090a57600080fd5b50610929600480360381019080803590602001909291905050506121ec565b005b34801561093757600080fd5b50610940612438565b005b34801561094e57600080fd5b50610957612443565b604051808273ffffffffffffffffffffffffffffffffffffffff1673ffffffffffffffffffffffffffffffffffffffff16815260200191505060405180910390f35b3480156109a557600080fd5b506109da600480360381019080803573ffffffffffffffffffffffffffffffffffffffff16906020019092919050505061246c565b604051808215151515815260200191505060405180910390f35b348015610a0057600080fd5b50610a09612489565b604051808215151515815260200191505060405180910390f35b348015610a2f57600080fd5b50610a4e600480360381019080803590602001909291905050506124e0565b005b348015610a5c57600080fd5b50610a91600480360381019080803573ffffffffffffffffffffffffffffffffffffffff1690602001909291905050506126a8565b604051808215151515815260200191505060405180910390f35b348015610ab757600080fd5b50610aec600480360381019080803573ffffffffffffffffffffffffffffffffffffffff1690602001909291905050506126c5565b005b348015610afa57600080fd5b50610b2f600480360381019080803573ffffffffffffffffffffffffffffffffffffffff16906020019092919050505061274e565b604051808215151515815260200191505060405180910390f35b348015610b5557600080fd5b50610b7e600480360381019080803590602001909291908035906020019092919050505061276b565b005b610b9e600480360381019080803590602001909291905050506129d3565b005b348015610bac57600080fd5b50610d5f600480360381019080803573ffffffffffffffffffffffffffffffffffffffff169060200190929190803573ffffffffffffffffffffffffffffffffffffffff169060200190929190803590602001908201803590602001908080601f0160208091040260200160405190810160405280939291908181526020018383808284378201915050505050509192919290803590602001908201803590602001908080601f0160208091040260200160405190810160405280939291908181526020018383808284378201915050505050509192919290803590602001908201803590602001908080601f0160208091040260200160405190810160405280939291908181526020018383808284378201915050505050509192919290803590602001908201803590602001908080601f0160208091040260200160405190810160405280939291908181526020018383808284378201915050505050509192919290803590602001908201803590602001908080601f0160208091040260200160405190810160405280939291908181526020018383808284378201915050505050509192919290505050612faa565b005b348015610d6d57600080fd5b50610d8c600480360381019080803590602001909291905050506134d6565b005b348015610d9a57600080fd5b50610dcf600480360381019080803573ffffffffffffffffffffffffffffffffffffffff169060200190929190505050613678565b005b610dda33612146565b1515610e4e576040517f08c379a00000000000000000000000000000000000000000000000000000000081526004018080602001828103825260198152602001807f4163636f756e74206973206e6f74206120636f6e73756d65720000000000000081525060200191505060405180910390fd5b610e5781613697565b50565b610e63336126a8565b1515610ed7576040517f08c379a000000000000000000000000000000000000000000000000000000000815260040180806020018281038252601e8152602001807f4163636f756e74206973206e6f74206120626f74746c696e67206661726d000081525060200191505060405180910390fd5b806007600b811115610ee557fe5b6003600083815260200190815260200160002060020160009054906101000a900460ff16600b811115610f1457fe5b141515610f89576040517f08c379a000000000000000000000000000000000000000000000000000000000815260040180806020018281038252600f8152602001807f4d696c6b206e6f74207061636b6564000000000000000000000000000000000081525060200191505060405180910390fd5b60086003600084815260200190815260200160002060020160006101000a81548160ff0219169083600b811115610fbc57fe5b02179055507ff00b9a5725b80c54016f42114f6ed7792d22eecb116011c4afac29c57bef6c95826040518082815260200191505060405180910390a15050565b6110053361274e565b1515611079576040517f08c379a00000000000000000000000000000000000000000000000000000000081526004018080602001828103825260178152602001807f43616c6c6572206973206e6f742061206661726d65722e00000000000000000081525060200191505060405180910390fd5b806001600b81111561108757fe5b6003600083815260200190815260200160002060020160009054906101000a900460ff16600b8111156110b657fe5b14151561112b576040517f08c379a000000000000000000000000000000000000000000000000000000000815260040180806020018281038252601a8152602001807f4d696c6b206e6f7420696e206661726d20636f6c642074616e6b00000000000081525060200191505060405180910390fd5b60026003600084815260200190815260200160002060020160006101000a81548160ff0219169083600b81111561115e57fe5b02179055507f3328f62b26855e1dfe1ef7caf3bab035c5bf08795295e392d97f9aa41661f793826040518082815260200191505060405180910390a15050565b6111a733611340565b151561121b576040517f08c379a000000000000000000000000000000000000000000000000000000000815260040180806020018281038252601c8152602001807f4163636f756e74206973206e6f742061207472616e73706f727465720000000081525060200191505060405180910390fd5b806003600b81111561122957fe5b6003600083815260200190815260200160002060020160009054906101000a900460ff16600b81111561125857fe5b1415156112cd576040517f08c379a00000000000000000000000000000000000000000000000000000000081526004018080602001828103825260188152602001807f4d696c6b206e6f74206c6f6164656420696e20747275636b000000000000000081525060200191505060405180910390fd5b60046003600084815260200190815260200160002060020160006101000a81548160ff0219169083600b81111561130057fe5b02179055507fc7af062d14d55fc46234b9d71575811759b12dc16ba17434ac0828d71178b6f4826040518082815260200191505060405180910390a15050565b60006113568260066136f190919063ffffffff16565b9050919050565b611366336137ee565b565b611370612489565b1561138e573373ffffffffffffffffffffffffffffffffffffffff16ff5b565b61139933612146565b151561140d576040517f08c379a00000000000000000000000000000000000000000000000000000000081526004018080602001828103825260198152602001807f4163636f756e74206973206e6f74206120636f6e73756d65720000000000000081525060200191505060405180910390fd5b80600a600b81111561141b57fe5b6003600083815260200190815260200160002060020160009054906101000a900460ff16600b81111561144a57fe5b1415156114bf576040517f08c379a00000000000000000000000000000000000000000000000000000000081526004018080602001828103825260128152602001807f4d696c6b206e6f7420707572636861736564000000000000000000000000000081525060200191505060405180910390fd5b600b6003600084815260200190815260200160002060020160006101000a81548160ff0219169083600b8111156114f257fe5b02179055507f6a52cd7f75cfe8b2cd55f985879f8566d6a538bccd6ff5b03501046cca793cfa826040518082815260200191505060405180910390a15050565b61153b33613848565b565b611546336138a2565b565b60008060006060600080600080600080600360008c8152602001908152602001600020600001549950600360008c8152602001908152602001600020600101549850600360008c8152602001908152602001600020600901549750600360008c8152602001908152602001600020600a018054600181600116156101000203166002900480601f01602080910402602001604051908101604052809291908181526020018280546001816001161561010002031660029004801561164d5780601f106116225761010080835404028352916020019161164d565b820191906000526020600020905b81548152906001019060200180831161163057829003601f168201915b50505050509650600360008c8152602001908152602001600020600b01549550600360008c815260200190815260200160002060020160009054906101000a900460ff16600b81111561169c57fe5b9450600360008c8152602001908152602001600020600d0160009054906101000a900473ffffffffffffffffffffffffffffffffffffffff169350600360008c8152602001908152602001600020600c0160009054906101000a900473ffffffffffffffffffffffffffffffffffffffff169250600360008c8152602001908152602001600020600e0160009054906101000a900473ffffffffffffffffffffffffffffffffffffffff169150600360008c8152602001908152602001600020600f0160009054906101000a900473ffffffffffffffffffffffffffffffffffffffff1690508989898989898989898999509950995099509950995099509950995099509193959799509193959799565b6117b6336126a8565b151561182a576040517f08c379a000000000000000000000000000000000000000000000000000000000815260040180806020018281038252601e8152602001807f4163636f756e74206973206e6f74206120626f74746c696e67206661726d000081525060200191505060405180910390fd5b806006600b81111561183857fe5b6003600083815260200190815260200160002060020160009054906101000a900460ff16600b81111561186757fe5b1415156118dc576040517f08c379a00000000000000000000000000000000000000000000000000000000081526004018080602001828103825260108152602001807f4d696c6b206e6f7420626f74746c65640000000000000000000000000000000081525060200191505060405180910390fd5b60076003600084815260200190815260200160002060020160006101000a81548160ff0219169083600b81111561190f57fe5b02179055507f9b3b66e2380b690bae22c73ef1428fb0c91e72fe14a4b6defa13035214187aff826040518082815260200191505060405180910390a15050565b611957612489565b151561196257600080fd5b600073ffffffffffffffffffffffffffffffffffffffff166000809054906101000a900473ffffffffffffffffffffffffffffffffffffffff1673ffffffffffffffffffffffffffffffffffffffff167f5c486528ec3e3f0ea91181cff8116f02bfa350e03b8b6f12e00765adbb5af85c60405160405180910390a360008060006101000a81548173ffffffffffffffffffffffffffffffffffffffff021916908373ffffffffffffffffffffffffffffffffffffffff160217905550565b611a2a3361246c565b1515611a9e576040517f08c379a000000000000000000000000000000000000000000000000000000000815260040180806020018281038252601c8152602001807f4163636f756e74206973206e6f742061206469737472696275746f720000000081525060200191505060405180910390fd5b611aa7816138fc565b50565b611ab333611340565b1515611b27576040517f08c379a000000000000000000000000000000000000000000000000000000000815260040180806020018281038252601c8152602001807f4163636f756e74206973206e6f742061207472616e73706f727465720000000081525060200191505060405180910390fd5b806002600b811115611b3557fe5b6003600083815260200190815260200160002060020160009054906101000a900460ff16600b811115611b6457fe5b141515611bff576040517f08c379a00000000000000000000000000000000000000000000000000000000081526004018080602001828103825260328152602001807f4d696c6b207069636b61626c652c20697420686173206e6f74206265656e206981526020017f6e73706563746564206279206661726d6572000000000000000000000000000081525060400191505060405180910390fd5b600380600084815260200190815260200160002060020160006101000a81548160ff0219169083600b811115611c3157fe5b0217905550336003600084815260200190815260200160002060030160006101000a81548173ffffffffffffffffffffffffffffffffffffffff021916908373ffffffffffffffffffffffffffffffffffffffff1602179055503360036000848152602001908152602001600020600d0160006101000a81548173ffffffffffffffffffffffffffffffffffffffff021916908373ffffffffffffffffffffffffffffffffffffffff1602179055507f8be9f0d532aad6993b07397d258ab71c6b11753e1459f7f6e41f19489136dfb6826040518082815260200191505060405180910390a15050565b600080600080606080606080600360008a8152602001908152602001600020600001549750600360008a8152602001908152602001600020600101549650600360008a815260200190815260200160002060030160009054906101000a900473ffffffffffffffffffffffffffffffffffffffff169550600360008a815260200190815260200160002060040160009054906101000a900473ffffffffffffffffffffffffffffffffffffffff169450600360008a81526020019081526020016000206005018054600181600116156101000203166002900480601f016020809104026020016040519081016040528092919081815260200182805460018160011615610100020316600290048015611e755780601f10611e4a57610100808354040283529160200191611e75565b820191906000526020600020905b815481529060010190602001808311611e5857829003601f168201915b50505050509350600360008a81526020019081526020016000206006018054600181600116156101000203166002900480601f016020809104026020016040519081016040528092919081815260200182805460018160011615610100020316600290048015611f265780601f10611efb57610100808354040283529160200191611f26565b820191906000526020600020905b815481529060010190602001808311611f0957829003601f168201915b50505050509250600360008a81526020019081526020016000206007018054600181600116156101000203166002900480601f016020809104026020016040519081016040528092919081815260200182805460018160011615610100020316600290048015611fd75780601f10611fac57610100808354040283529160200191611fd7565b820191906000526020600020905b815481529060010190602001808311611fba57829003601f168201915b50505050509150600360008a81526020019081526020016000206008018054600181600116156101000203166002900480601f0160208091040260200160405190810160405280929190818152602001828054600181600116156101000203166002900480156120885780601f1061205d57610100808354040283529160200191612088565b820191906000526020600020905b81548152906001019060200180831161206b57829003601f168201915b50505050509050878787878787878797509750975097509750975097509750919395975091939597565b6120bb3361274e565b151561212f576040517f08c379a00000000000000000000000000000000000000000000000000000000081526004018080602001828103825260178152602001807f43616c6c6572206973206e6f742061206661726d65722e00000000000000000081525060200191505060405180910390fd5b61213881613956565b50565b612144336139b0565b565b600061215c8260096136f190919063ffffffff16565b9050919050565b61216c336126a8565b15156121e0576040517f08c379a000000000000000000000000000000000000000000000000000000000815260040180806020018281038252601e8152602001807f4163636f756e74206973206e6f74206120626f74746c696e67206661726d000081525060200191505060405180910390fd5b6121e981613a0a565b50565b6121f5336126a8565b1515612269576040517f08c379a000000000000000000000000000000000000000000000000000000000815260040180806020018281038252601e8152602001807f4163636f756e74206973206e6f74206120626f74746c696e67206661726d000081525060200191505060405180910390fd5b806004600b81111561227757fe5b6003600083815260200190815260200160002060020160009054906101000a900460ff16600b8111156122a657fe5b14151561231b576040517f08c379a000000000000000000000000000000000000000000000000000000000815260040180806020018281038252601e8152602001807f4d696c6b206e6f7420696e20626f74746c696e67206661726d2074616e6b000081525060200191505060405180910390fd5b60056003600084815260200190815260200160002060020160006101000a81548160ff0219169083600b81111561234e57fe5b0217905550336003600084815260200190815260200160002060030160006101000a81548173ffffffffffffffffffffffffffffffffffffffff021916908373ffffffffffffffffffffffffffffffffffffffff1602179055503360036000848152602001908152602001600020600c0160006101000a81548173ffffffffffffffffffffffffffffffffffffffff021916908373ffffffffffffffffffffffffffffffffffffffff1602179055507ff7184d17029e3ecc19d88253bc247ce6bc6b8000b5cee9779d7e6327bd414f5d826040518082815260200191505060405180910390a15050565b61244133613a64565b565b60008060009054906101000a900473ffffffffffffffffffffffffffffffffffffffff16905090565b60006124828260086136f190919063ffffffff16565b9050919050565b60008060009054906101000a900473ffffffffffffffffffffffffffffffffffffffff1673ffffffffffffffffffffffffffffffffffffffff163373ffffffffffffffffffffffffffffffffffffffff1614905090565b6124e9336126a8565b151561255d576040517f08c379a000000000000000000000000000000000000000000000000000000000815260040180806020018281038252601e8152602001807f4163636f756e74206973206e6f74206120626f74746c696e67206661726d000081525060200191505060405180910390fd5b806005600b81111561256b57fe5b6003600083815260200190815260200160002060020160009054906101000a900460ff16600b81111561259a57fe5b141515612635576040517f08c379a000000000000000000000000000000000000000000000000000000000815260040180806020018281038252602a8152602001807f4d696c6b206e6f7420746f20626520626f74746c65642c206d697373696e672081526020017f696e7370656374696f6e0000000000000000000000000000000000000000000081525060400191505060405180910390fd5b60066003600084815260200190815260200160002060020160006101000a81548160ff0219169083600b81111561266857fe5b02179055507f8aff1823bf9f30e2f7eacb17de47cc2917592a34188a0b47c0c228c82c38fc54826040518082815260200191505060405180910390a15050565b60006126be8260076136f190919063ffffffff16565b9050919050565b6126ce33611340565b1515612742576040517f08c379a000000000000000000000000000000000000000000000000000000000815260040180806020018281038252601c8152602001807f4163636f756e74206973206e6f742061207472616e73706f727465720000000081525060200191505060405180910390fd5b61274b81613abe565b50565b60006127648260056136f190919063ffffffff16565b9050919050565b6127743361246c565b15156127e8576040517f08c379a000000000000000000000000000000000000000000000000000000000815260040180806020018281038252601c8152602001807f4163636f756e74206973206e6f742061206469737472696275746f720000000081525060200191505060405180910390fd5b816008600b8111156127f657fe5b6003600083815260200190815260200160002060020160009054906101000a900460ff16600b81111561282557fe5b14151561289a576040517f08c379a00000000000000000000000000000000000000000000000000000000081526004018080602001828103825260128152602001807f4d696c6b206e6f742064656c697665726564000000000000000000000000000081525060200191505060405180910390fd5b60096003600085815260200190815260200160002060020160006101000a81548160ff0219169083600b8111156128cd57fe5b0217905550336003600085815260200190815260200160002060030160006101000a81548173ffffffffffffffffffffffffffffffffffffffff021916908373ffffffffffffffffffffffffffffffffffffffff1602179055503360036000858152602001908152602001600020600e0160006101000a81548173ffffffffffffffffffffffffffffffffffffffff021916908373ffffffffffffffffffffffffffffffffffffffff1602179055508160036000858152602001908152602001600020600b01819055507fa96ae0fc3224ebd79eebfe54bd130cc9cb94416cddd1f2386115e00b72532468836040518082815260200191505060405180910390a1505050565b6000806000806000856009600b8111156129e957fe5b6003600083815260200190815260200160002060020160009054906101000a900460ff16600b811115612a1857fe5b141515612a8d576040517f08c379a00000000000000000000000000000000000000000000000000000000081526004018080602001828103825260108152602001807f4d696c6b206e6f74206f6e2073616c650000000000000000000000000000000081525060200191505060405180910390fd5b612a9633612146565b1515612b0a576040517f08c379a00000000000000000000000000000000000000000000000000000000081526004018080602001828103825260198152602001807f4163636f756e74206973206e6f74206120636f6e73756d65720000000000000081525060200191505060405180910390fd5b60036000888152602001908152602001600020600b0154803410151515612b99576040517f08c379a00000000000000000000000000000000000000000000000000000000081526004018080602001828103825260168152602001807f4e6f7420656e6f756768206d6f6e657920676976656e0000000000000000000081525060200191505060405180910390fd5b87600080600a600360008d815260200190815260200160002060020160006101000a81548160ff0219169083600b811115612bd057fe5b021790555033600360008d815260200190815260200160002060030160006101000a81548173ffffffffffffffffffffffffffffffffffffffff021916908373ffffffffffffffffffffffffffffffffffffffff16021790555033600360008d8152602001908152602001600020600f0160006101000a81548173ffffffffffffffffffffffffffffffffffffffff021916908373ffffffffffffffffffffffffffffffffffffffff160217905550600360008c8152602001908152602001600020600b015499506064600a8b02811515612ca757fe5b0498506064600a8b02811515612cb957fe5b0497506064600a8b02811515612ccb57fe5b04965086888a8c0303039550600360008c8152602001908152602001600020600d0160009054906101000a900473ffffffffffffffffffffffffffffffffffffffff1673ffffffffffffffffffffffffffffffffffffffff166108fc8a9081150290604051600060405180830381858888f19350505050158015612d53573d6000803e3d6000fd5b50600360008c8152602001908152602001600020600c0160009054906101000a900473ffffffffffffffffffffffffffffffffffffffff1673ffffffffffffffffffffffffffffffffffffffff166108fc899081150290604051600060405180830381858888f19350505050158015612dd0573d6000803e3d6000fd5b50600360008c8152602001908152602001600020600e0160009054906101000a900473ffffffffffffffffffffffffffffffffffffffff1673ffffffffffffffffffffffffffffffffffffffff166108fc889081150290604051600060405180830381858888f19350505050158015612e4d573d6000803e3d6000fd5b50600360008c815260200190815260200160002060040160009054906101000a900473ffffffffffffffffffffffffffffffffffffffff1673ffffffffffffffffffffffffffffffffffffffff166108fc879081150290604051600060405180830381858888f19350505050158015612eca573d6000803e3d6000fd5b507f653d56639fee6b566a5c804764e9689de38645f0b733df89a36a1b7b42173dd88b6040518082815260200191505060405180910390a160036000848152602001908152602001600020600b01549150813403905060036000848152602001908152602001600020600f0160009054906101000a900473ffffffffffffffffffffffffffffffffffffffff1673ffffffffffffffffffffffffffffffffffffffff166108fc829081150290604051600060405180830381858888f19350505050158015612f9c573d6000803e3d6000fd5b505050505050505050505050565b612fb2613d71565b612fbb3361274e565b151561302f576040517f08c379a00000000000000000000000000000000000000000000000000000000081526004018080602001828103825260178152602001807f43616c6c6572206973206e6f742061206661726d65722e00000000000000000081525060200191505060405180910390fd5b60025481600001818152505060015481602001818152505087816060019073ffffffffffffffffffffffffffffffffffffffff16908173ffffffffffffffffffffffffffffffffffffffff168152505060008160400190600b81111561309157fe5b9081600b81111561309e57fe5b8152505033816080019073ffffffffffffffffffffffffffffffffffffffff16908173ffffffffffffffffffffffffffffffffffffffff1681525050868160a0019073ffffffffffffffffffffffffffffffffffffffff16908173ffffffffffffffffffffffffffffffffffffffff1681525050858160c00181905250848160e00181905250838161010001819052508281610120018190525060025460015401816101400181815250508181610160018190525080600360006001548152602001908152602001600020600082015181600001556020820151816001015560408201518160020160006101000a81548160ff0219169083600b8111156131a157fe5b021790555060608201518160020160016101000a81548173ffffffffffffffffffffffffffffffffffffffff021916908373ffffffffffffffffffffffffffffffffffffffff16021790555060808201518160030160006101000a81548173ffffffffffffffffffffffffffffffffffffffff021916908373ffffffffffffffffffffffffffffffffffffffff16021790555060a08201518160040160006101000a81548173ffffffffffffffffffffffffffffffffffffffff021916908373ffffffffffffffffffffffffffffffffffffffff16021790555060c0820151816005019080519060200190613297929190613e9b565b5060e08201518160060190805190602001906132b4929190613e9b565b506101008201518160070190805190602001906132d2929190613e9b565b506101208201518160080190805190602001906132f0929190613e9b565b50610140820151816009015561016082015181600a019080519060200190613319929190613e9b565b5061018082015181600b01556101a082015181600c0160006101000a81548173ffffffffffffffffffffffffffffffffffffffff021916908373ffffffffffffffffffffffffffffffffffffffff1602179055506101c082015181600d0160006101000a81548173ffffffffffffffffffffffffffffffffffffffff021916908373ffffffffffffffffffffffffffffffffffffffff1602179055506101e082015181600e0160006101000a81548173ffffffffffffffffffffffffffffffffffffffff021916908373ffffffffffffffffffffffffffffffffffffffff16021790555061020082015181600f0160006101000a81548173ffffffffffffffffffffffffffffffffffffffff021916908373ffffffffffffffffffffffffffffffffffffffff16021790555090505060018054016001819055506001600254016002819055507f408c3a4f99dfaddb27c99ee6034865fa1ffcc17a14f900a346d825e8ba486aa960015489604051808381526020018273ffffffffffffffffffffffffffffffffffffffff1673ffffffffffffffffffffffffffffffffffffffff1681526020019250505060405180910390a15050505050505050565b6134df3361274e565b1515613553576040517f08c379a00000000000000000000000000000000000000000000000000000000081526004018080602001828103825260178152602001807f43616c6c6572206973206e6f742061206661726d65722e00000000000000000081525060200191505060405180910390fd5b806000600b81111561356157fe5b6003600083815260200190815260200160002060020160009054906101000a900460ff16600b81111561359057fe5b141515613605576040517f08c379a000000000000000000000000000000000000000000000000000000000815260040180806020018281038252600e8152602001807f4d696c6b206e6f7420726561647900000000000000000000000000000000000081525060200191505060405180910390fd5b60016003600084815260200190815260200160002060020160006101000a81548160ff0219169083600b81111561363857fe5b02179055507f63a81c9dc2fcc3a6b156d5b4007a5d2b89d74ebfd40b0fb3e5d06bb4608cdf80826040518082815260200191505060405180910390a15050565b613680612489565b151561368b57600080fd5b61369481613b18565b50565b6136ab816009613c1290919063ffffffff16565b8073ffffffffffffffffffffffffffffffffffffffff167f28b26e7a3d20aedbc5f8f2ebf7da671c0491723a2b78f47a097b0e46dee0714260405160405180910390a250565b60008073ffffffffffffffffffffffffffffffffffffffff168273ffffffffffffffffffffffffffffffffffffffff1614151515613797576040517f08c379a00000000000000000000000000000000000000000000000000000000081526004018080602001828103825260178152602001807f4163636f756e74206973206e6f7420766572696669656400000000000000000081525060200191505060405180910390fd5b8260000160008373ffffffffffffffffffffffffffffffffffffffff1673ffffffffffffffffffffffffffffffffffffffff16815260200190815260200160002060009054906101000a900460ff16905092915050565b613802816006613cc290919063ffffffff16565b8073ffffffffffffffffffffffffffffffffffffffff167f71c0ec84b3f18f4b5ab128b9b8ffdebbe0ccf91b486a336a5ce99bf62842ddda60405160405180910390a250565b61385c816009613cc290919063ffffffff16565b8073ffffffffffffffffffffffffffffffffffffffff167fe3f5ed5f263f1f01764a96edfc7d025f511ec5f7d180e8816908b78bcf74f09860405160405180910390a250565b6138b6816008613cc290919063ffffffff16565b8073ffffffffffffffffffffffffffffffffffffffff167f126174f6cf49c81cdb4a9214c6b8f037bef55b4ec31e4fc776cea2a1c8a88d5960405160405180910390a250565b613910816008613c1290919063ffffffff16565b8073ffffffffffffffffffffffffffffffffffffffff167fddbf200aa634dc3fb81cfd68583dd1040d1c751d335e1d86b631bde3e977fea860405160405180910390a250565b61396a816005613c1290919063ffffffff16565b8073ffffffffffffffffffffffffffffffffffffffff167f2e0ded4123377a3c2bc9a26f1717655a129e2f20752924d42e730ec89c83dbd060405160405180910390a250565b6139c4816005613cc290919063ffffffff16565b8073ffffffffffffffffffffffffffffffffffffffff167fa5e0f060af304ab17dd418c7927e3da3ae7868189bf387aee09ab179ccc572f260405160405180910390a250565b613a1e816007613c1290919063ffffffff16565b8073ffffffffffffffffffffffffffffffffffffffff167fdc87fe0b8e7906fc54bdf5382bf98ac957c408341d3821d7b65d0526e4ab248160405160405180910390a250565b613a78816007613cc290919063ffffffff16565b8073ffffffffffffffffffffffffffffffffffffffff167f19382f3588bf7460dfaa88bb5344fe16f108bc636d8921ea4e624d6085a041a160405160405180910390a250565b613ad2816006613c1290919063ffffffff16565b8073ffffffffffffffffffffffffffffffffffffffff167f4d9645f2965973330140385c3b546ad4c04b7ee2ae3abb69562f5929d6b8320b60405160405180910390a250565b600073ffffffffffffffffffffffffffffffffffffffff168173ffffffffffffffffffffffffffffffffffffffff1614151515613b5457600080fd5b8073ffffffffffffffffffffffffffffffffffffffff166000809054906101000a900473ffffffffffffffffffffffffffffffffffffffff1673ffffffffffffffffffffffffffffffffffffffff167f5c486528ec3e3f0ea91181cff8116f02bfa350e03b8b6f12e00765adbb5af85c60405160405180910390a3806000806101000a81548173ffffffffffffffffffffffffffffffffffffffff021916908373ffffffffffffffffffffffffffffffffffffffff16021790555050565b600073ffffffffffffffffffffffffffffffffffffffff168173ffffffffffffffffffffffffffffffffffffffff1614151515613c4e57600080fd5b613c5882826136f1565b151515613c6457600080fd5b60018260000160008373ffffffffffffffffffffffffffffffffffffffff1673ffffffffffffffffffffffffffffffffffffffff16815260200190815260200160002060006101000a81548160ff0219169083151502179055505050565b600073ffffffffffffffffffffffffffffffffffffffff168173ffffffffffffffffffffffffffffffffffffffff1614151515613cfe57600080fd5b613d0882826136f1565b1515613d1357600080fd5b60008260000160008373ffffffffffffffffffffffffffffffffffffffff1673ffffffffffffffffffffffffffffffffffffffff16815260200190815260200160002060006101000a81548160ff0219169083151502179055505050565b6102206040519081016040528060008152602001600081526020016000600b811115613d9957fe5b8152602001600073ffffffffffffffffffffffffffffffffffffffff168152602001600073ffffffffffffffffffffffffffffffffffffffff168152602001600073ffffffffffffffffffffffffffffffffffffffff16815260200160608152602001606081526020016060815260200160608152602001600081526020016060815260200160008152602001600073ffffffffffffffffffffffffffffffffffffffff168152602001600073ffffffffffffffffffffffffffffffffffffffff168152602001600073ffffffffffffffffffffffffffffffffffffffff168152602001600073ffffffffffffffffffffffffffffffffffffffff1681525090565b828054600181600116156101000203166002900490600052602060002090601f016020900481019282601f10613edc57805160ff1916838001178555613f0a565b82800160010185558215613f0a579182015b82811115613f09578251825591602001919060010190613eee565b5b509050613f179190613f1b565b5090565b613f3d91905b80821115613f39576000816000905550600101613f21565b5090565b905600a165627a7a72305820a65495b5ce36c2bf199e5feeda80973e2c0b809c0c22cd673845d91d0e32d03f0029",
  "source": "pragma solidity ^0.4.24;\n// Define a contract 'Supplychain'\n\nimport './Milk.sol';\n\nimport '../milkaccesscontrol/FarmerRole.sol';\nimport '../milkaccesscontrol/TransporterRole.sol';\nimport '../milkaccesscontrol/BottlingFarmRole.sol';\nimport '../milkaccesscontrol/DistributorRole.sol';\nimport '../milkaccesscontrol/ConsumerRole.sol';\n\nimport '../milkcore/Ownable.sol';\ncontract SupplyChain is Ownable, Milk, FarmerRole, TransporterRole,BottlingFarmRole,DistributorRole, ConsumerRole {\n\n  // Define a modifier that checks if the paid amount is sufficient to cover the price\n  modifier paidEnough(uint _price) { \n    require(msg.value >= _price, \"Not enough money given\"); \n    _;\n  }\n  \n  // Define a modifier that checks the price and refunds the remaining balance\n  modifier checkValue(uint _upc) {\n    _;\n    uint _price = items[_upc].productPrice;\n    uint amountToReturn = msg.value - _price;\n    items[_upc].consumerID.transfer(amountToReturn);\n  }\n\n  // Define a function 'kill' if required\n    function kill() public {\n    if (isOwner()){\n      selfdestruct(msg.sender);\n    }\n  }\n\n  // Define a function 'milkCow' that allows a farmer to mark an item 'Milked'\n  function milkCow(address _fromCow,  address _originFarmerID, string _originFarmName, string _originFarmInformation, string  _originFarmLatitude, string  _originFarmLongitude, string  _productNotes) public onlyFarmer\n  {\n    // Add the new item as part of Harvest\n\n    MilkItem memory milk;\n    milk.sku = sku;\n    milk.upc= upc;\n    milk.cow = _fromCow;\n    milk.state = MilkState.Milked;\n    milk.ownerID = msg.sender;\n    milk.originFarmerID = _originFarmerID;\n    milk.originFarmName = _originFarmName;\n    milk.originFarmInformation = _originFarmInformation;\n    milk.originFarmLatitude=_originFarmLatitude;\n    milk.originFarmLongitude=_originFarmLongitude;\n    milk.productID = upc + sku;\n    milk.productNotes = _productNotes;\n        \n    items[upc] = milk;\n    \n    // Increment sku\n    upc = upc + 1;\n    sku = sku + 1;\n    // Emit the appropriate event\n    emit CowMilked(upc, _fromCow);\n  }\n\n  // Define a function 'processtItem' that allows a farmer to mark an item 'Processed'\n  function refrigerate(uint _upc) public onlyFarmer() isMilked(_upc)\n  {\n    // Update the appropriate fields\n    items[_upc].state = MilkState.StoredInColdTank;\n\n    // Emit the appropriate event\n    emit StoredInFarm(_upc);    \n  }\n\n  // Define a function 'processtItem' that allows a farmer to mark an item 'Processed'\n  function onFarmInspect(uint _upc) public onlyFarmer() isStoredInColdTank(_upc)\n  {\n    // Update the appropriate fields\n    items[_upc].state = MilkState.InspectedOnFarm;\n\n    // Emit the appropriate event\n    emit OnFarmInspected(_upc);    \n  }\n\n\n  // Define a function 'packItem' that allows a farmer to mark an item 'Packed'\n  function pick(uint _upc) public onlyTransporter() isInspectedOnFarm(_upc)\n  \n  {\n    // Update the appropriate fields\n    items[_upc].state = MilkState.TankShipped;\n    items[_upc].ownerID = msg.sender;\n    items[_upc].transporterID = msg.sender;\n\n    // Emit the appropriate event\n    emit PickedFromFarm(_upc);\n  }\n function ship(uint _upc) public onlyTransporter() isTankShipped(_upc)\n  \n  {\n    // Update the appropriate fields\n    items[_upc].state = MilkState.StoredInHugeTank;\n\n    // Emit the appropriate event\n    emit ShippedToBottlingFarm(_upc);\n  }\n\nfunction onBottlingFarmInspect(uint _upc) public onlyBottlingFarm() isStoredInHugeTank(_upc)\n  \n  {\n    // Update the appropriate fields\n    items[_upc].state = MilkState.InspectedOnBottlingFarm;\n    items[_upc].ownerID = msg.sender;\n    items[_upc].bottlingFarmID = msg.sender;\n\n    // Emit the appropriate event\n    emit OnBottlingFarmInspected(_upc);\n  }\n\nfunction bottle(uint _upc) public onlyBottlingFarm() isInspectedOnBottlingFarm(_upc)\n  \n  {\n    // Update the appropriate fields\n    items[_upc].state = MilkState.Bottled;\n\n    // Emit the appropriate event\n    emit Bottled(_upc);\n  }\n\n  function pack(uint _upc) public onlyBottlingFarm() isBottled(_upc)\n  \n  {\n    // Update the appropriate fields\n    items[_upc].state = MilkState.Packed;\n\n    // Emit the appropriate event\n    emit Packed(_upc);\n  }\n\n\n  function delivery(uint _upc) public onlyBottlingFarm() isPacked(_upc)\n  \n  {\n    // Update the appropriate fields\n    items[_upc].state = MilkState.Delivered;\n    // Emit the appropriate event\n    emit Shipped(_upc);\n  }\n\n\n\n  // Define a function 'sellItem' that allows a farmer to mark an item 'ForSale'\n  function sell(uint _upc, uint _price) public onlyDistributor() isDelivered(_upc)\n  // Call modifier to check if upc has passed previous supply chain stage\n  \n  // Call modifier to verify caller of this function\n  \n  {\n    // Update the appropriate fields\n    items[_upc].state = MilkState.OnSale ;\n    items[_upc].ownerID = msg.sender ;\n    items[_upc].distributorID = msg.sender ;\n     items[_upc].productPrice = _price ;\n    \n    \n    // Emit the appropriate event\n    emit ForSale(_upc);\n  }\n\n  // Define a function 'buyItem' that allows the disributor to mark an item 'Sold'\n  // Use the above defined modifiers to check if the item is available for sale, if the buyer has paid enough, \n  // and any excess ether sent is refunded back to the buyer\n  function buy(uint _upc) public payable \n    // Call modifier to check if upc has passed previous supply chain stage\n    isOnSale(_upc)\n    onlyConsumer()\n    // Call modifer to check if buyer has paid enough\n    paidEnough (items[_upc].productPrice)\n    // Call modifer to send any excess ether back to buyer\n    checkValue (_upc)\n    {\n    // Update the appropriate fields - ownerID, distributorID, itemState\n    items[_upc].state = MilkState.Purchased ;\n    items[_upc].ownerID = msg.sender ;\n    items[_upc].consumerID = msg.sender;\n\n    // Transfer money to supply chain actors\n    uint price = items[_upc].productPrice;\n    \n    uint transporterPrice = price * 10 /100;\n    uint bottlingFarmPrice = price * 10 /100;\n    uint distributorPrice = price * 10 /100;\n    uint farmerPrice = price - transporterPrice - bottlingFarmPrice - distributorPrice;\n    \n    items[_upc].transporterID.transfer(transporterPrice);\n    items[_upc].bottlingFarmID.transfer(bottlingFarmPrice);\n    items[_upc].distributorID.transfer(distributorPrice);\n    items[_upc].originFarmerID.transfer(farmerPrice);\n\n  \n    // emit the appropriate event\n    emit Purchased(_upc);\n  }\nfunction consume(uint _upc) public  \n    // Call modifier to check if upc has passed previous supply chain stage\n    onlyConsumer()\n    // Call modifer to check if buyer has paid enough\n    isPurchased(_upc)\n    {\n    // Update the appropriate fields - ownerID, distributorID, itemState\n    items[_upc].state = MilkState.Consumed ;\n \n    // emit the appropriate event\n    emit Consumed(_upc);\n  }\n}\n",
  "sourcePath": "/Users/lagostini/MilkyCHAIN/contracts/milkbase/SupplyChain.sol",
  "compiler": {
    "name": "solc",
    "version": "0.4.25+commit.59dbf8f1.Emscripten.clang"
  },
  "schemaVersion": "2.0.2",
  "updatedAt": "2019-05-01T18:45:35.451Z"
}