{
  "contractName": "TransporterRole",
  "abi": [
    {
      "inputs": [],
      "payable": false,
      "stateMutability": "nonpayable",
      "type": "constructor"
    },
    {
      "anonymous": false,
      "inputs": [
        {
          "indexed": true,
          "name": "account",
          "type": "address"
        }
      ],
      "name": "TransporterAdded",
      "type": "event"
    },
    {
      "anonymous": false,
      "inputs": [
        {
          "indexed": true,
          "name": "account",
          "type": "address"
        }
      ],
      "name": "TransporterRemoved",
      "type": "event"
    },
    {
      "constant": true,
      "inputs": [
        {
          "name": "account",
          "type": "address"
        }
      ],
      "name": "isTransporter",
      "outputs": [
        {
          "name": "",
          "type": "bool"
        }
      ],
      "payable": false,
      "stateMutability": "view",
      "type": "function"
    },
    {
      "constant": false,
      "inputs": [
        {
          "name": "account",
          "type": "address"
        }
      ],
      "name": "addTransporter",
      "outputs": [],
      "payable": false,
      "stateMutability": "nonpayable",
      "type": "function"
    },
    {
      "constant": false,
      "inputs": [],
      "name": "renounceTransporter",
      "outputs": [],
      "payable": false,
      "stateMutability": "nonpayable",
      "type": "function"
    }
  ],
  "bytecode": "0x608060405234801561001057600080fd5b506100293361002e640100000000026401000000009004565b610251565b61004f81600061009564010000000002610422179091906401000000009004565b8073ffffffffffffffffffffffffffffffffffffffff167f4d9645f2965973330140385c3b546ad4c04b7ee2ae3abb69562f5929d6b8320b60405160405180910390a250565b600073ffffffffffffffffffffffffffffffffffffffff168173ffffffffffffffffffffffffffffffffffffffff16141515156100d157600080fd5b6100ea8282610154640100000000026401000000009004565b1515156100f657600080fd5b60018260000160008373ffffffffffffffffffffffffffffffffffffffff1673ffffffffffffffffffffffffffffffffffffffff16815260200190815260200160002060006101000a81548160ff0219169083151502179055505050565b60008073ffffffffffffffffffffffffffffffffffffffff168273ffffffffffffffffffffffffffffffffffffffff16141515156101fa576040517f08c379a00000000000000000000000000000000000000000000000000000000081526004018080602001828103825260178152602001807f4163636f756e74206973206e6f7420766572696669656400000000000000000081525060200191505060405180910390fd5b8260000160008373ffffffffffffffffffffffffffffffffffffffff1673ffffffffffffffffffffffffffffffffffffffff16815260200190815260200160002060009054906101000a900460ff16905092915050565b6104fe806102606000396000f300608060405260043610610057576000357c0100000000000000000000000000000000000000000000000000000000900463ffffffff1680632b8109d51461005c5780632ea17b27146100b7578063b7022049146100ce575b600080fd5b34801561006857600080fd5b5061009d600480360381019080803573ffffffffffffffffffffffffffffffffffffffff169060200190929190505050610111565b604051808215151515815260200191505060405180910390f35b3480156100c357600080fd5b506100cc61012e565b005b3480156100da57600080fd5b5061010f600480360381019080803573ffffffffffffffffffffffffffffffffffffffff169060200190929190505050610139565b005b60006101278260006101c290919063ffffffff16565b9050919050565b610137336102bf565b565b61014233610111565b15156101b6576040517f08c379a000000000000000000000000000000000000000000000000000000000815260040180806020018281038252601c8152602001807f4163636f756e74206973206e6f742061207472616e73706f727465720000000081525060200191505060405180910390fd5b6101bf81610319565b50565b60008073ffffffffffffffffffffffffffffffffffffffff168273ffffffffffffffffffffffffffffffffffffffff1614151515610268576040517f08c379a00000000000000000000000000000000000000000000000000000000081526004018080602001828103825260178152602001807f4163636f756e74206973206e6f7420766572696669656400000000000000000081525060200191505060405180910390fd5b8260000160008373ffffffffffffffffffffffffffffffffffffffff1673ffffffffffffffffffffffffffffffffffffffff16815260200190815260200160002060009054906101000a900460ff16905092915050565b6102d381600061037390919063ffffffff16565b8073ffffffffffffffffffffffffffffffffffffffff167f71c0ec84b3f18f4b5ab128b9b8ffdebbe0ccf91b486a336a5ce99bf62842ddda60405160405180910390a250565b61032d81600061042290919063ffffffff16565b8073ffffffffffffffffffffffffffffffffffffffff167f4d9645f2965973330140385c3b546ad4c04b7ee2ae3abb69562f5929d6b8320b60405160405180910390a250565b600073ffffffffffffffffffffffffffffffffffffffff168173ffffffffffffffffffffffffffffffffffffffff16141515156103af57600080fd5b6103b982826101c2565b15156103c457600080fd5b60008260000160008373ffffffffffffffffffffffffffffffffffffffff1673ffffffffffffffffffffffffffffffffffffffff16815260200190815260200160002060006101000a81548160ff0219169083151502179055505050565b600073ffffffffffffffffffffffffffffffffffffffff168173ffffffffffffffffffffffffffffffffffffffff161415151561045e57600080fd5b61046882826101c2565b15151561047457600080fd5b60018260000160008373ffffffffffffffffffffffffffffffffffffffff1673ffffffffffffffffffffffffffffffffffffffff16815260200190815260200160002060006101000a81548160ff02191690831515021790555050505600a165627a7a7230582048de6450836fad9cc5d41c9ac237597fba49a70f560e0f3901d46c213ab3ac460029",
  "source": "pragma solidity ^0.4.24;\n\n// Import the library 'Roles'\nimport \"./Roles.sol\";\n\n// Define a contract 'TransporterRole' to manage this role - add, remove, check\ncontract TransporterRole {\n  using Roles for Roles.Role;\n  // Define 2 events, one for Adding, and other for Removing\n  event TransporterAdded(address indexed account);\n  event TransporterRemoved(address indexed account);\n\n  // Define a struct 'transporters' by inheriting from 'Roles' library, struct Role\n  Roles.Role private transporters;\n\n  // In the constructor make the address that deploys this contract the 1st transporter\n  constructor() public {\n        _addTransporter(msg.sender);\n  }\n\n  // Define a modifier that checks to see if msg.sender has the appropriate role\n  modifier onlyTransporter() {\n    require(isTransporter(msg.sender), \"Account is not a transporter\");\n    _;\n  }\n\n  // Define a function 'isTransporter' to check this role\n  function isTransporter(address account) public view returns (bool) {\n    return transporters.has(account);\n  }\n\n  // Define a function 'addTransporter' that adds this role\n  function addTransporter(address account) public onlyTransporter {\n    _addTransporter(account);\n  }\n\n  // Define a function 'renounceTransporter' to renounce this role\n  function renounceTransporter() public {\n    _removeTransporter(msg.sender);\n  }\n\n  // Define an internal function '_addTransporter' to add this role, called by 'addTransporter'\n  function _addTransporter(address account) internal {\n    transporters.add(account);\n    emit TransporterAdded(account);\n  }\n\n  // Define an internal function '_removeTransporter' to remove this role, called by 'removeTransporter'\n  function _removeTransporter(address account) internal {\n    transporters.remove(account);\n    emit TransporterRemoved(account);\n  }\n}",
  "sourcePath": "/Users/lagostini/MilkyCHAIN/contracts/milkaccesscontrol/TransporterRole.sol",
  "compiler": {
    "name": "solc",
    "version": "0.4.25+commit.59dbf8f1.Emscripten.clang"
  },
  "schemaVersion": "2.0.2",
  "updatedAt": "2019-05-01T18:45:35.444Z"
}